:1000000002308A00E32A0000C424532A4127C32473
:100010004110CE304E10E3360000C434733A6137DD
:10002000E334611DA012B019EC3AE3360000C43489
:10003000733A6137E334611DA012B019EC3AE3362C
:100040000001C434733A6137E334611DA012B01962
:10005000EC3AE3360001C434733A6137E334611D8E
:10006000A012B019EC3AE3360001C434733A613798
:10007000E334611DA012B019EC3AE3360001C43438
:10008000733A6137E334611DA012B019EC3AE336DC
:1000900000002D3084008313000803195D2801300F
:1000A000F800F701F70B5228F80B51284A30F700F7
:1000B000F70B58285B28800B4F280800341862285B
:1000C000861363288617831686138312B4186A284A
:1000D00006136B2806178316061383123419722829
:1000E000861273288616831686128312B4197A280C
:1000F00006127B2806168316061200008312851549
:100100008316851183288312851183168511831226
:100110000800B5018316861700308312861B013054
:10012000B5048316061700308312061B0130F70052
:100130000310F70D7708B504831686160030831276
:10014000861A0130F700F70DF70DFC30F705770838
:10015000B5048316061600308312061A0130F70024
:10016000F70DF70DF70DF830F7057708B5043508EA
:10017000F8000800831685110511851083120511FA
:100180008316051186170617861606168312851420
:1001900083168510000083128515831685110000D3
:1001A000831289207808B400851183168511000018
:1001B0008312851583168511000083128920780823
:1001C000B300851183168511861306138612061255
:1001D0008312340EF700F030F70577083304F80087
:1001E0007808B300B31FF6288316C228B108031D90
:1001F000FB280511FC280515831605110000831244
:1002000085108316851000008312851183168511D1
:100210008312320EB3000F30B3053308B4005E20F2
:1002200032080F39B300B4005E2008002830A40063
:100230000C30A5000130A6000630A70085118316FA
:1002400085118312051183160511831285108316FB
:100250008510861306138612061285110511851066
:100260000F308312AD0049200130A3002308033C66
:10027000031C42290330B4005E200530AD00492044
:10028000A30A36290230B4005E200530AD004920B3
:10029000A3012308033C031C5929243023078400AD
:1002A00083130008A800B1012808B200BA20A30AED
:1002B00049298A110A12052BA401A301831686106D
:1002C000831286141030F700F70B642900008316A0
:1002D0008610831286108101831606148312061875
:1002E00075290108FF3C031D6C2981018316061442
:1002F0008312061C89290108FF3C03198929A30AD6
:100300000319A40A1230F700F70B8429872900008B
:1003100076293230AD0049202308F8002408F9007E
:100320008A110A12062B2E0B962999294030AF000C
:100330009A29AF0101302D02AF072F088038B00095
:10034000B1013008B200BA2008002C08073A03199E
:10035000B3290B3A0319B829063A0319C029023AFE
:100360000319C629CB290130AD00AE009321D02955
:10037000B1010130B200BA200230AD004920D029CD
:100380000130AD000230AE009321D029B101103010
:10039000B200BA20D0290130B1002C08B200BA2036
:1003A00008000B08A3008B13831603178C170C147B
:1003B0000000000083120313A31B8B1703170C0804
:1003C0007F390319252A0313A30003170D0803130C
:1003D000A40003170F080313A5002308AC00A521F0
:1003E000240803178D000313250803178F00031338
:1003F0000B08A6008B13831603178C170C14000030
:10040000000083120313A61B8B1703170C0D0E0D90
:100410007F390319252A0313A30003170D080313BB
:10042000A40003170F080313A5002308AC00A5219F
:10043000240803178D000313250803178F008D0A66
:1004400003198F0A0313D129031703138A110A1200
:100450001A2B0B08A4008B13831603178C170C148C
:100460000000000083120313A41B8B170318602ADB
:1004700003170C087F390313A40003170D08031397
:10048000A50003170F080313A6002408AC00A5213C
:10049000250803178D000313260803178F00031385
:1004A0000B08A7008B13831603178C170C1400007E
:1004B000000083120313A71B8B17A30B602A7F2A4C
:1004C00003170C0D0E0D7F390313A40003170D083D
:1004D0000313A50003170F080313A6002408AC009C
:1004E000A521250803178D000313260803178F0085
:1004F0008D0A03198F0A03100313A30B292A08007E
:10050000AB010408AA002B10831B2B14240EF03817
:10051000A600A607E23EA700323EA90024080F3934
:10052000A707A707A907E93EA800A807A807230E61
:100530000F39A807A907A80DA90DA909A90D230816
:100540000F39A907A60D0730A5000A30A907A8038F
:10055000031CA62AA807A703031CAA2AA707A60309
:10056000031CAE2AA607A503031CB22A253084006B
:10057000831307302A052A1384072930040203193C
:100580002A170008F700031DCD2A2A1BCD2A2A1A94
:10059000DF2AAA19CD2A2030D02AAA152A123030F3
:1005A000F707A4010408A3002410831B2414770870
:1005B000AC00A52123088400831324188317840A20
:1005C0002A1FBD2A080003081F39830061308316E3
:1005D0008F000F08FF308312A0008316031709084D
:1005E000C039890003131F129F12003003178800BF
:1005F000831287018801890183138316031301087D
:10060000C03907388100831216295C297908A200B5
:100610007808A100A108031D242BA208031D242B88
:100620000C30AC00A521043003178D0000308F0082
:100630000313D129A0112008831687008312871184
:100640003230AD004920952CA108031D2A2BA208A9
:1006500003195B2BA208031D5B2B2108053C031C1F
:100660005B2BA011200883168700831287110C30A2
:10067000AC00A5210D3003178D0000308F00031052
:100680000B300313A30029220A3084002208A4009F
:100690002108A30080226330AC00A5216D30AC009E
:1006A000A521A011200883168700831287153230F8
:1006B000AD004920952CA208031D9C2B21080A3C63
:1006C000031C9C2BA208031D692B2108063C031860
:1006D0009C2BA011200883168700831287110C30F1
:1006E000AC00A521173003178D0000308F000310D8
:1006F0000B300313A30029220A3084002208A4002F
:100700002108A30080226330AC00A5216D30AC002D
:10071000A521A01120088316870083128715C830F1
:10072000AD004920A011200883168700831287118D
:10073000C830AD004920952CA208031DA32B210829
:100740000A3C0318E12BA208031DE12B2108143CED
:10075000031CE12BA0112008831687008312871148
:100760000C30AC00A521213003178D0000308F0024
:1007700003100B300313A30029220A30840022083F
:10078000A4002108A30080226330AC00A5216D30B5
:10079000AC00A521A01120088316870083128715BD
:1007A000C830AD004920A0112008831687008312AD
:1007B00087110230A300AF30AD004920A30BDB2B23
:1007C000952CA208031DE82B2108143C0318262CA5
:1007D000A208031D262C21081E3C031C262CA01158
:1007E000200883168700831287110C30AC00A521E6
:1007F0002B3003178D0000308F0003100B300313D4
:10080000A30029220A3084002208A4002108A300A2
:1008100080226330AC00A5216D30AC00A521A01171
:1008200020088316870083128715C830AD00492041
:10083000A011200883168700831287110530A300BA
:100840006E30AD004920A30B202C952CA208031D6F
:100850002D2C21081E3C03186B2CA208031D6B2CA9
:100860002108283C031C6B2CA0112008831687004C
:10087000831287110C30AC00A521353003178D0091
:1008800000308F0003100B300313A30029220A301D
:1008900084002208A4002108A30080226330AC0059
:1008A000A5216D30AC00A521A0112008831687007A
:1008B00083128715C830AD004920A0112008831687
:1008C0008700831287110430A300AF30AD004920A8
:1008D000A30B652C952CA208031D722C2108283C23
:1008E0000318952CA0112008831687008312871106
:1008F0000C30AC00A5213F3003178D0000308F0075
:1009000003100B300313A30029220A3084002208AD
:10091000A4002108A30080226330AC00A5216D3023
:0E092000AC00A5216430AD004920052B63001A
:04400E00C52CFF3F7F
:00000001FF
;PIC16F886
;CRC=E3F2  CREATED="01-feb.-17 00:43"
