:1000000002308A00502A0000C434733A6137E33466
:10001000611DA012B019EC3AE3360000C434733A03
:100020006137E334611DA012B019EC3AE3360000E9
:100030002D3084008313000803192C280130F800A8
:10004000F701F70B2128F80B20284A30F700F70BAF
:1000500027282A28800B1E280800341831288613E8
:1000600032288617831686138312B418392806138C
:100070003A2806178316061383123419412886126C
:1000800042288616831686128312B419492806124E
:100090004A28061683160612000083128515831659
:1000A0008511522883128511831685118312080049
:1000B000B5018316861700308312861B0130B50404
:1000C0008316061700308312061B0130F700031059
:1000D000F70D7708B5048316861600308312861A4A
:1000E0000130F700F70DF70DFC30F7057708B50480
:1000F0008316061600308312061A0130F700F70D3A
:10010000F70DF70DF830F7057708B5043508F80056
:1001100008008316851105118510831205118316B9
:100120000511861706178616061683128514831680
:100130008510000083128515831685110000831237
:1001400058207808B40085118316851100008312A9
:100150008515831685110000831258207808B30096
:1001600085118316851186130613861206128312D3
:10017000340EF700F030F70577083304F8007808FC
:10018000B300B31FC52883169128B108031DCA28E0
:100190000511CB2805158316051100008312851063
:1001A0008316851000008312851183168511831232
:1001B000320EB3000F30B3053308B4002D203208DF
:1001C0000F39B300B4002D2008002830A4000C30F3
:1001D000A5000130A6000630A70085118316851101
:1001E000831205118316051183128510831685105D
:1001F00086130613861206128511051185100F301D
:100200008312AD0018200130A3002308033C031C17
:1002100011290330B4002D200530AD001820A30AA9
:1002200005290230B4002D200530AD001820A301AF
:100230002308033C031C282924302307840083134C
:100240000008A800B1012808B2008920A30A1829D3
:100250008A110A126F2AA401A30183168610831241
:1002600086141030F700F70B332900008316861030
:1002700083128610831606148312061C3A298316ED
:1002800006148312061C4E29A30A0319A40A12306D
:10029000F700F70B49294C2900003F293230AD0007
:1002A00018202308F8002408F9008A110A12702A7D
:1002B0002E0B5B295E294030AF005F29AF01013072
:1002C0002D02AF072F088038B000B1013008B2000E
:1002D000892008002C08073A031978290B3A0319DA
:1002E0007D29063A03198529023A03198B29902999
:1002F0000130AD00AE0058219529B1010130B200A6
:1003000089200230AD00182095290130AD0002305F
:10031000AE0058219529B1011030B20089209529ED
:100320000130B1002C08B200892008000B08A4009D
:100330008B13831603178C170C1400000000831214
:100340000313A41B8B170318CD2903170C087F393F
:100350000313A40003170D080313A50003170F08C8
:100360000313A6002408AC006A21250803178D009A
:100370000313260803178F0003130B08A7008B1322
:10038000831603178C170C1400000000831203134C
:10039000A71B8B17A30BCD29EC2903170C0D0E0DF2
:1003A0007F390313A40003170D080313A5000317D7
:1003B0000F080313A6002408AC006A2125080317C0
:1003C0008D000313260803178F008D0A03198F0A67
:1003D00003100313A30B96290800AB010408AA001D
:1003E0002B10831B2B14240EF038A600A607E23E28
:1003F000A700323EA90024080F39A707A707A907BD
:10040000E93EA800A807A807230E0F39A807A907E7
:10041000A80DA90DA909A90D23080F39A907A60D33
:100420000730A5000A30A907A803031C132AA80750
:10043000A703031C172AA707A603031C1B2AA6074A
:10044000A503031C1F2A25308400831307302A05C7
:100450002A1384072930040203192A170008F70019
:10046000031D3A2A2A1B3A2A2A1A4C2AAA193A2A7E
:1004700020303D2AAA152A123030F707A4010408BB
:10048000A3002410831B24147708AC006A212308DE
:100490008400831324188317840A2A1F2A2A080039
:1004A00003081F398300613083168F000F08FF3067
:1004B0008312A000831603170908C03989000313AB
:1004C0001F129F12003003178800831287018801D2
:1004D0008901831364300313AD001820E5282B290C
:1004E0007908A2007808A100A208031DA82A210803
:1004F0000A3C031CA82A0C30AC006A210430031704
:100500008D0000308F0003100B300313A3009621E1
:100510000A3084002208A4002108A300ED216330E2
:10052000AC006A216D30AC006A21A011200883164E
:100530008700831287156430AD001820A0112008B1
:1005400083168700831287116430AD001820E62AD5
:10055000A208031DAF2A21080A3C0318E32AA208B7
:10056000031DE32A2108133C031CE32A0C30AC00D2
:100570006A210E3003178D0000308F0003100B30FE
:100580000313A30096210A3084002208A400210846
:10059000A300ED216330AC006A216D30AC006A210C
:1005A000A011200883168700831287156430AD00E0
:1005B0001820A01120088316870083128711C830E5
:1005C000AD001820E62A3230AD0018206F2A6300F3
:04400E00C52CFF3F7F
:00000001FF
;PIC16F886
;CRC=A0D5  CREATED="29-ene.-17 21:20"
